:020000040800F2
:10000000B8060020B5010008590C0008510C000882
:10001000550C0008BD0200086D0C0008000000002F
:10002000000000000000000000000000610C00085B
:10003000C1020008000000005D0C0008650C00080B
:10004000CF010008CF010008CF010008CF01000850
:10005000CF010008CF010008CF010008CF01000840
:10006000CF010008CF010008CF010008CF01000830
:10007000CF010008CF010008CF010008CF01000820
:10008000CF010008CF010008CF010008CF01000810
:10009000CF010008CF010008CF010008CF01000800
:1000A000CF010008CF010008CF010008CF010008F0
:1000B000CF010008CF010008CF010008CF010008E0
:1000C000CF010008CF010008CF010008CF010008D0
:1000D000CF010008CF010008CF010008CF010008C0
:1000E000CF010008CF010008CF01000800F002F89E
:1000F00000F050F814A696E8000CB244B344DA4578
:1001000001D100F047F8BAE80F000FA696E83000DA
:10011000A5EB040504EB0607AAEB0704A7F101070A
:100120004FEA15154FEA3414A4F10104AC4201D38F
:1001300000F030F813F0010F18BFFB1A43F0010371
:1001400000F001F8DBE71847AC120000CC12000009
:10015000103A24BF78C878C1FAD8520724BF30C8F3
:1001600030C144BF04680C60704700007047000055
:100170000023002400250026103A28BF78C1FBD8B0
:10018000520728BF30C148BF0B6070471FB51FBD65
:1001900010B510BD00F058F81146FFF7F7FF00F05A
:1001A00055FF00F076F803B4FFF7F2FF03BC00F050
:1001B0007DF800000948804709480047FEE7FEE750
:1001C000FEE7FEE7FEE7FEE7FEE7FEE7FEE7FEE707
:1001D00004480549054A064B70470000690C0008B1
:1001E000ED000008B8000020B8060020B80200208A
:1001F000B80200204FF0000200B513469446964620
:10020000203922BFA0E80C50A0E80C50B1F1200129
:10021000BFF4F7AF090728BFA0E80C5048BF0CC0D7
:100220005DF804EB890028BF40F8042B08BF704735
:1002300048BF20F8022B11F0804F18BF00F8012BA7
:100240007047704770477047754600F02BF8AE4610
:1002500005006946534620F00700854618B020B5D2
:10026000FFF7B6FFBDE820404FF000064FF0000753
:100270004FF000084FF0000BAC46ACE8C009ACE80A
:10028000C009ACE8C009ACE8C00921F007018D46FF
:10029000704710B50446AFF300802046BDE810401B
:1002A000FFF781BF00487047100000200149182067
:1002B000ABBEFEE72600020070470000FEE700002C
:1002C00070470000B0B5044600F01EF9054640F244
:1002D0000000C2F200000078611C18BF044400BF97
:1002E00000F012F9401BA042FAD3B0BD2DE9F04F47
:1002F00082B00E68002E00F0FD8041F20042C4F290
:100300000102042340F2004E904208BF03234FF63F
:10031000FF7CC4F2010E009300240123C1F2100CF3
:100320004FF0000A4FF000094BE000BF41F200021D
:10033000C4F20102009F904208BF022704F00C03A0
:100340000F229A402BEA020207FA03F34FEA9A05BA
:100350001A4346F825204E6840F20C45F202DEF8BA
:10036000082054BF22EA080242EA0802C4F201054A
:10037000CEF808202A68B30254BF22EA080242EAF3
:1003800008022A60B303DEF8042054BF22EA080200
:1003900042EA0802F303CEF80420DEF800204FF012
:1003A000010354BF22EA080242EA0802CEF8002004
:1003B0000E680AF1010A36FA0AF204F1040400F0A8
:1003C000998003FA0AFB16EA0B08F1D04E686645DD
:1003D00012DC122E56D8DFE806F0350B4D49555584
:1003E000555555555555555555555545510000BF11
:1003F000D1F80C9046E000BF4FF6FF72C1F2210227
:1004000096420FDC0022C1F2110296421AD000225D
:10041000C1F21202964215D00022C1F22102964288
:1004200010D02FE00022C1F2220296420AD0002210
:10043000C1F23102964205D00022C1F23202964248
:1004400020D100BF8A684AB1012A14BFC0F814B095
:10045000C0F810B04FF0080914E000BF4FF00409D5
:1004600010E000BFCA6802F104090BE04FF0000978
:1004700008E000BFCA6802F1080903E0CA6802F197
:100480000C0900BF02462646B8F5807F24BF04321F
:10049000203E17680F25B54027EA050509FA06F63C
:1004A00035431560CA79D2067FF582AF41F2180351
:1004B000C4F202031A68AEF57E7642F001021A60B9
:1004C0001A6802F001020192019A2AF0030256F81A
:1004D00002B040F60002C4F20102904208D040F699
:1004E0000042C4F2010290427FF420AF012725E7C9
:1004F000002723E702B0BDE8F08F0000002A08BF04
:10050000090401617047000040F2B000C2F200002F
:100510000068704740F2000040F2B001C2F20000F3
:10052000C2F2000100780A681044086070470000B9
:1005300080B542F20000C4F20200016841F01001EF
:100540000160032000F07AF80F2000F005F800F0B9
:1005500027F8002080BD000070B540F20006C2F20E
:10056000000640F208013278C2F200014FF47A73BB
:100570000968B3FBF2F20446B1FBF2F1084600F061
:1005800051FB0F2C4FF0010508D838B94FF0FF3060
:1005900021460022002500F025F87460284670BD31
:1005A00082B041F21800C4F202000168022241F058
:1005B00001010160016801F00101019101994168A7
:1005C00041F080514160406800F0805000900098F8
:1005D0000420C4F20100016862F31A61016002B0F4
:1005E0007047000010B54EF60C5CCEF2000CDCF843
:1005F0000030C3F3022E8EF00704042C28BF04241D
:10060000BEF103034FF0FF3E0EFA04F438BF00239F
:10061000A14399400EFA03F39A43114300F00F02ED
:1006200000F160430901043A03F564436244002881
:1006300048BF02F10C03197010BD00004EF60C51BA
:10064000CEF200010A684FF6FF031A4060F30A2257
:1006500042F0806040F0FD7008607047002804BFE1
:10066000012070472DE9F04381B042F20008C4F246
:1006700002080446D8F800000D4600F00700814249
:100680000CD9D8F8000020F007002843C8F8000073
:10069000D8F8000000F00700A8426CD1206841F2B1
:1006A00004098107C4F2020917D5410705D5D9F815
:1006B000001041F4E061C9F80010010705D5D9F830
:1006C000001041F46051C9F80010D9F80010A26878
:1006D00021F0F0011143C9F80010C00742D1D8F849
:1006E000000000F0070085420CD2D8F8000020F08E
:1006F00007002843C8F80000D8F8000000F0070001
:10070000A84238D12068410707D5D9F80010E2681F
:1007100021F4E0611143C9F80010000708D5D9F8A9
:100720000000216920F4605040EAC100C9F80000CF
:10073000D9F8002002F00C00082841F20020C0F295
:100740007A004DD141F2E233C2F38341C0F6000397
:10075000595CD20338D440F60010C0F23D00484343
:100760003EE000BF606859F8041C022808D0012848
:1007700026D1890306D4012001B0BDE8F08300BF73
:100780008901F8D5D9F8001021F003010843C9F810
:100790000000FFF7B9FE064641F28837D9F800009D
:1007A000616800F00C00B0EB810F98D0FFF7ACFE51
:1007B000801BB842F2D9032001B0BDE8F08300BF2E
:1007C0008907D8D5DEE700BFD9F8002041F2E03331
:1007D000C2F34042C0F600039A5C4843B0FBF2F01B
:1007E000D9F8001041F2D032C1F30311C0F6000273
:1007F000515C40F2080220FA01F140F20400C2F21A
:1008000000000068C2F200021160FFF7A5FE0020A0
:1008100001B0BDE8F083000040F20800C2F2000021
:1008200000687047002804BF012070472DE9F0419F
:1008300082B00446007841F20006C007C4F2020606
:100840000CD0706800F00C00042840F08180306803
:10085000800303D56068002800F046812078800777
:100860001BD5706810F00C0F09D0706800F00C00F8
:10087000082840F087807068C00300F183803068EA
:10088000800703D52069012840F02E813068616916
:1008900020F0F80040EAC10030602078000713D44F
:1008A000207840072CD4E569002D00F0188170688D
:1008B00000F00C00082840F0A780012D40F00481D2
:1008C000012002B0BDE8F081A069002800F084801A
:1008D0000020C4F242200121C0F88014FFF714FE6A
:1008E000054600BF706A800700F1B280FFF70CFE7A
:1008F000401B0228F6D9032002B0BDE8F08100BFFA
:10090000F0695FEAC00808D4F06940F08050F061F7
:10091000F06900F080500090009847F20007C4F2A0
:1009200000073868C00549D4386840F480703860E2
:10093000FFF7EAFD054600BF3868C0053ED4FFF763
:10094000E3FD401B6428F7D9032002B0BDE8F08125
:10095000706800F00C00082803D17068C0033FF5F0
:1009600076AF61683068002900F00C81B1F5A02FE6
:1009700000F00081B1F5803F40F01A8140F48030F2
:100980001CE100BF2069002840F20000C4F24220B0
:1009900000F0888001210160FFF7B6FD054600BF29
:1009A000306880073FF572AFFFF7AEFD401B0228AD
:1009B000F6D9032002B0BDE8F08100BFE168306ADB
:1009C000002900F09D80052900F09280012940F067
:1009D000AF8040F00100B1E00020C4F242200021CD
:1009E000C0F88014FFF790FD054600BF706A8007CD
:1009F0007FF556AFFFF788FD401B0228F6D903208C
:100A000002B0BDE8F08100BF0027C4F242270020F9
:100A10003866FFF779FD022D05460DD1306880015B
:100A200040F1DE80FFF770FD401B02284FF003000D
:100A3000F4D902B0BDE8F081306880014FD5FFF7EE
:100A400063FD401B02284FF00300F5D9F1E700BF1A
:100A500040F20800C2F20000006844F6D351C1F22F
:100A60006201A0FB0101480A019000BF00BF01988C
:100A7000411E002801913FF413AF00BF0198411EB1
:100A8000002801913FF40CAF00BF0198411E0028DF
:100A900001913FF405AF00BF0198411E002801916C
:100AA000E4D1FDE600210160FFF72EFD054600BF01
:100AB000306880077FF5F1AEFFF726FD401B022866
:100AC0004FF00300F4D9B4E77068216A00F4803273
:100AD0008A4209D1616A00F47010884204D1002072
:100AE00002B0BDE8F08100BF012002B0BDE8F08196
:100AF00040F004003062306A40F001001EE000BFA8
:100B000020F001003062306A20F004003062FFF70C
:100B1000FBFC054641F28837306A800720D5FFF795
:100B2000F3FC401BB8424FF00300F5D981E700BF4A
:100B300020F001003062306A20F004003062FFF7DC
:100B4000E3FC054641F28837306A800708D4FFF796
:100B5000DBFC401BB842F7D9032002B0BDE8F081AE
:100B6000B8F1000F3FF59FAEF06920F08050F061C2
:100B700099E600BF40F480203060306840F4803057
:100B80001CE000BF20F480303060306820F480200A
:100B90003060FFF7B9FC0546306880037FF55EAE34
:100BA000FFF7B2FC401B64284FF00300F4D940E784
:100BB00020F480303060306820F480203060FFF70F
:100BC000A3FC0546306880033FF548AEFFF79CFC68
:100BD000401B6428F6D9032002B0BDE8F08100BFB5
:100BE000206AB0F5803F05D17168A26821F4003118
:100BF000114371607168626A21F4741111430843F2
:100C0000706001203866FFF77FFC04463068800181
:100C10003FF565AFFFF778FC001B02284FF003009B
:100C2000F4D906E7411E0020B0EB116F1CBF012074
:100C300070474EF21002CEF2000251604EF6235180
:100C4000CEF20001F0230B70072190601160704715
:100C5000FEE70000FEE70000FEE70000704700002E
:100C600070470000FFF756BC70470000FEE7000029
:100C700070B504460020012A88BF0120C00084F816
:100C8000370001F140004FF48045012A84F83E20EE
:100C900084F83D10A4F8395084F83B1084F83C00E7
:100CA00004D1002B1CBF042084F837003220FFF74A
:100CB00009FB20460021002200F056F920460321BE
:100CC000002200F051F90520FFF7FCFA2046002130
:100CD000002200F049F920460321002200F044F9E7
:100CE000FFF79AFD4DF68361C4F21B31A0FB0101B1
:100CF000880C9621484380B220B100210E318142F8
:100D000000BFFBD320460021002200F02DF9204631
:100D10000321002200F028F920460021002200F0E3
:100D200023F9204602210022022500F01DF90120AE
:100D3000FFF7C8FA94F83760204645EA16110022FA
:100D400000F012F906F00F012046002200F00CF925
:100D5000042084F8360020460021002200F004F927
:100D600020460C21002200F0FFF82046002100223E
:100D700000F0FAF820460121002200F0F5F80220E8
:100D8000FFF7A0FA20460021002284F8385000F036
:100D9000EBF8204606210022BDE8704000F0E4B8E0
:100DA000B0B590F83650044645F0010084F836009E
:100DB00029092046002200F0D7F805F0060000F1CE
:100DC000090120460022BDE8B04000F0CDB8000087
:100DD00010B500210022044600F0C6F8204601218B
:100DE0000022BDE8104000F0BFB80000B0B590F898
:100DF0003650044645F0020084F8360029092046A2
:100E0000002200F0B1F805F0050000F10A012046CB
:100E10000022BDE8B04000F0A7B80000B0B590F8DF
:100E20003650044645F0040084F83600290920466F
:100E3000002200F099F8032060F39F052046294620
:100E40000022BDE8B04000F08FB8000010B50021CE
:100E50000022044600F088F820460221002200F01B
:100E600083F80220BDE81040FFF72CBAB0B590F827
:100E70003650044605F0FE0084F836002909204665
:100E8000002200F071F805F0060000F1080120468C
:100E90000022BDE8B04000F067B80000B0B590F89F
:100EA0003650044605F0FD0084F836002909204636
:100EB000002200F059F805F0050000F10801204675
:100EC0000022BDE8B04000F04FB80000B0B590F887
:100ED0003650044605F0FB0084F836002909204608
:100EE000002200F041F8022060F39F0520462946C9
:100EF0000022BDE8B04000F037B8000070B50D78B2
:100F0000002D08BF70BD04464E1E00BFE8B20109A7
:100F10002046012200F028F805F00F0120460122AA
:100F200000F022F8B5780136002DEFD170BD000039
:100F300010B501210022044600F016F820460821D1
:100F40000022BDE8104000F00FB8000010B50121EC
:100F50000022044600F008F820460C210022BDE8DB
:100F6000104000F001B80000B0B50446A388006846
:100F70000D461946FFF7C2FA206BA18EC5F3C002D9
:100F8000FFF7BCFAA06AA18DC5F38002FFF7B6FA9D
:100F9000206AA18CC5F34002FFF7B0FAA069A18BCB
:100FA00005F00102FFF7AAFA2069A18A0122FFF7E2
:100FB000A5FAFFF731FC44F24021C0F20F014DF6D3
:100FC00083658842C4F21B3508D3A0FB0501880C59
:100FD000002100BF0E31814200BFFBD32069A18AEE
:100FE0000022FFF78BFAFFF717FCA0FB0501880C26
:100FF0003221484380B2002808BFB0BD002100BFA5
:101000000E31814200BFFBD3B0BD0000B0B5044635
:1010100090F83E00032A28BF0322824228BF421EC6
:10102000D0B2204490F8390000224518E8B20821D7
:1010300041EA10112046FFF797FF05F00F01204607
:101040000022BDE8B040FFF78FBF000090B0FFF76F
:101050006FFA06AC201D2421FFF7CCF80220069081
:1010600001200A9010200B90002520460D95FFF7D7
:10107000D9FB28B1EFF3108072B600BFFEE700BFC6
:101080000F20CDE9010501A80021CDE90355059503
:10109000FFF7E4FA20B1EFF3108072B6FEE700BF6D
:1010A0004FF0000A41F21807CDE908AACDE906AAD7
:1010B000C4F20207386840F6004540F0100038607E
:1010C0003868C4F2010500F01000019001983868FA
:1010D00005F5806440F00400386038684FF4005132
:1010E00000F00400019001983868002240F00800E8
:1010F000386038684FF4005800F0080001900198FB
:101100002046FFF7FBF9A5F5806630461021002246
:10111000FFF7F4F928464FF202410022FFF7EEF9FB
:101120000DF11809CDF818804FF001084FF0020BAF
:1011300020464946CDE9078ACDF824B0FFF7D6F816
:10114000102006A981E8010930464946CDF824B0AF
:10115000FFF7CCF84FF2024006A981E8010D2846BE
:101160004946FFF7C3F8386840F2700440F00400C5
:1011700038607868C2F2000440F0010078604FF6F1
:101180000040CFF6FF702958022221F470612950E7
:101190002958002341F4306129501C20C4F200007A
:1011A0004721C16044F61F61016140F2DC510162D8
:1011B000016841F060010160416841F48071416063
:1011C0004FF08040016841F0010101604FF4806000
:1011D000A0804FF40040A0834FF48040A0844FF4DF
:1011E0000050A0854FF48050A08620461021256035
:1011F0002561A4F814B0A5612562A5622563FFF7F7
:1012000037FD204600210022FFF700FF64A12046A1
:10121000FFF774FE204600210122FFF7F7FE64A1CC
:101220002046FFF76BFE40F2DC50FFF74BF82046FC
:10123000FFF74CFE2046FFF7F1FD2046FFF7C8FD03
:101240002046FFF703FE5FA12046FFF757FE00BFD1
:101250004FF47A70FFF736F82046FFF7C7FD4FF4DA
:101260007A70FFF72FF82046FFF79AFD40F6B83066
:10127000FFF728F82046FFF7F9FD2046FFF70EFE9E
:101280006420FFF71FF82046FFF760FE4FF4FA7066
:10129000FFF718F82046FFF759FE4FF4FA70FFF7F2
:1012A00011F82046FFF752FE4FF4FA70FFF70AF8E4
:1012B0002046FFF74BFE4FF4FA70FFF703F8204685
:1012C000FFF744FE4FF4FA70FEF7FCFF2046FFF7ED
:1012D0003DFE4FF4FA70FEF7F5FF2046FFF736FEAD
:1012E0004FF4FA70FEF7EEFF2046FFF72FFE4FF4A3
:1012F000FA70FEF7E7FF2046FFF728FE4FF4FA707A
:10130000FEF7E0FF2046FFF721FE4FF4FA70FEF7EC
:10131000D9FF2046FFF70CFE4FF4FA70FEF7D2FF1C
:101320002046FFF705FE4FF4FA70FEF7CBFF20468C
:10133000FFF7FEFD4FF4FA70FEF7C4FF2046FFF7FB
:10134000F7FD4FF4FA70FEF7BDFF2046FFF7F0FD02
:101350004FF4FA70FEF7B6FF2046FFF7E9FD4FF4B1
:10136000FA70FEF7AFFF2046FFF7E2FD4FF4FA7088
:10137000FEF7A8FF2046FFF7DBFD4FF4FA70FEF7FB
:10138000A1FF2046FFF7D4FD4FF4FA70FEF79AFF55
:101390002046FFF7CDFD4FF4FA70FEF793FF57E7B5
:1013A000486F6C61204D756E646F2120636F6E0015
:1013B00043616C6942657461205072726F6F2121C4
:1013C000000000004269656E76656E69646F00001A
:1013D00000000000000000000102030406070809E5
:1013E000010202030405060708090A0B0C0D0E0F83
:1013F0001010000018140008000000201000000069
:10140000500100082814000810000020A806000061
:101410007001000800000000010000001000000042
:0814200000127A000000000038
:04000005080000ED02
:00000001FF
