:020000040800F2
:1000000000070020B5010008851300087D130008D3
:100010008113000871020008991300080000000015
:100020000000000000000000000000008D13000828
:1000300075020008000000008913000891130008F1
:10004000CF010008CF010008CF010008CF01000850
:10005000CF010008CF010008CF010008CF01000840
:10006000CF010008CF010008CF010008CF01000830
:10007000CF010008CF010008CF010008CF01000820
:10008000CF010008CF010008CF010008CF01000810
:10009000CF010008CF010008CF010008CF01000800
:1000A000CF010008CF010008CF010008CF010008F0
:1000B000CF010008CF010008CF010008CF010008E0
:1000C000CF010008CF010008CF010008CF010008D0
:1000D000CF010008CF010008CF010008CF010008C0
:1000E000CF010008CF010008CF01000800F002F89E
:1000F00000F050F814A696E8000CB244B344DA4578
:1001000001D100F047F8BAE80F000FA696E83000DA
:10011000A5EB040504EB0607AAEB0704A7F101070A
:100120004FEA15154FEA3414A4F10104AC4201D38F
:1001300000F030F813F0010F18BFFB1A43F0010371
:1001400000F001F8DBE718472C1900004C190000FB
:10015000103A24BF78C878C1FAD8520724BF30C8F3
:1001600030C144BF04680C60704700007047000055
:100170000023002400250026103A28BF78C1FBD8B0
:10018000520728BF30C148BF0B6070471FB51FBD65
:1001900010B510BD00F031F81146FFF7F7FF01F080
:1001A000CFFA00F04FF803B4FFF7F2FF03BC00F002
:1001B00057F800000948804709480047FEE7FEE776
:1001C000FEE7FEE7FEE7FEE7FEE7FEE7FEE7FEE707
:1001D00004480549054A064B70470000951300087E
:1001E000ED000008000100200007002000030020AF
:1001F00000030020704770477047754600F02CF8E8
:10020000AE4605006946534620F00700854618B003
:1002100020B5FFF7DDFFBDE820404FF000064FF0AE
:1002200000074FF000084FF0000BAC46ACE8C009E7
:10023000ACE8C009ACE8C009ACE8C00921F007018E
:100240008D46704710B50446AFF300802046BDE8E8
:100250001040FFF7A8BF00000048704710000020C2
:1002600001491820ABBEFEE72600020070470000DF
:10027000FEE7000070470000B0B5044600F01EF92C
:10028000054640F20000C2F200000078611C18BF71
:10029000044400BF00F012F9401BA042FAD3B0BDE5
:1002A0002DE9F04F82B00E68002E00F0FD8041F283
:1002B0000042C4F20102042340F2004E904208BF03
:1002C00003234FF6FF7CC4F2010E009300240123A8
:1002D000C1F2100C4FF0000A4FF000094BE000BFD4
:1002E00041F20002C4F20102009F904208BF0227BF
:1002F00004F00C030F229A402BEA020207FA03F3E0
:100300004FEA9A051A4346F825204E6840F20C45FC
:10031000F202DEF8082054BF22EA080242EA08028C
:10032000C4F20105CEF808202A68B30254BF22EABD
:10033000080242EA08022A60B303DEF8042054BF30
:1003400022EA080242EA0802F303CEF80420DEF8AB
:1003500000204FF0010354BF22EA080242EA0802DB
:10036000CEF800200E680AF1010A36FA0AF204F10A
:10037000040400F0998003FA0AFB16EA0B08F1D096
:100380004E68664512DC122E56D8DFE806F0350BB3
:100390004D49555555555555555555555555554531
:1003A000510000BFD1F80C9046E000BF4FF6FF723D
:1003B000C1F2210296420FDC0022C1F211029642E4
:1003C0001AD00022C1F21202964215D00022C1F2C8
:1003D0002102964210D02FE00022C1F22202964262
:1003E0000AD00022C1F23102964205D00022C1F2A9
:1003F0003202964220D100BF8A684AB1012A14BF56
:10040000C0F814B0C0F810B04FF0080914E000BFF5
:100410004FF0040910E000BFCA6802F104090BE0C4
:100420004FF0000908E000BFCA6802F1080903E0C4
:10043000CA6802F10C0900BF02462646B8F5807F63
:1004400024BF0432203E17680F25B54027EA050572
:1004500009FA06F635431560CA79D2067FF582AFF0
:1004600041F21803C4F202031A68AEF57E7642F038
:1004700001021A601A6802F001020192019A2AF040
:10048000030256F802B040F60002C4F201029042A4
:1004900008D040F60042C4F2010290427FF420AF3F
:1004A000012725E7002723E702B0BDE8F08F000011
:1004B000002A08BF090401617047000040F2F800FB
:1004C000C2F200000068704740F2000040F2F801FC
:1004D000C2F20000C2F2000100780A68104408600D
:1004E0007047000080B542F20000C4F202000168CB
:1004F00041F010010160032000F07AF80F2000F0B5
:1005000005F800F027F8002080BD000070B540F22B
:100510000006C2F2000640F208013278C2F2000181
:100520004FF47A730968B3FBF2F20446B1FBF2F1BF
:10053000084600F051FB0F2C4FF0010508D838B9E0
:100540004FF0FF3021460022002500F025F87460AE
:10055000284670BD82B041F21800C4F20200016862
:10056000022241F001010160016801F001010191E5
:100570000199416841F080514160406800F080502D
:10058000009000980420C4F20100016862F31A612F
:10059000016002B07047000010B54EF60C5CCEF260
:1005A000000CDCF80030C3F3022E8EF00704042C9C
:1005B00028BF0424BEF103034FF0FF3E0EFA04F4FB
:1005C00038BF0023A14399400EFA03F39A43114325
:1005D00000F00F0200F160430901043A03F564439F
:1005E0006244002848BF02F10C03197010BD0000DE
:1005F0004EF60C51CEF200010A684FF6FF031A4086
:1006000060F30A2242F0806040F0FD70086070479D
:10061000002804BF012070472DE9F04381B042F269
:100620000008C4F202080446D8F800000D4600F0A5
:10063000070081420CD9D8F8000020F007002843B9
:10064000C8F80000D8F8000000F00700A8426CD1FC
:10065000206841F204098107C4F2020917D5410755
:1006600005D5D9F8001041F4E061C9F80010010780
:1006700005D5D9F8001041F46051C9F80010D9F837
:100680000010A26821F0F0011143C9F80010C00762
:1006900042D1D8F8000000F0070085420CD2D8F80B
:1006A000000020F007002843C8F80000D8F8000038
:1006B00000F00700A84238D12068410707D5D9F8D3
:1006C0000010E26821F4E0611143C9F8001000074E
:1006D00008D5D9F80000216920F4605040EAC10033
:1006E000C9F80000D9F8002002F00C00082841F2F7
:1006F0000020C0F27A004DD141F66223C2F383415B
:10070000C0F60003595CD20338D440F60010C0F2A2
:100710003D0048433EE000BF606859F8041C0228D1
:1007200008D0012826D1890306D4012001B0BDE8F4
:10073000F08300BF8901F8D5D9F8001021F003013A
:100740000843C9F80000FFF7B9FE064641F28837B2
:10075000D9F80000616800F00C00B0EB810F98D070
:10076000FFF7ACFE801BB842F2D9032001B0BDE810
:10077000F08300BF8907D8D5DEE700BFD9F8002095
:1007800041F66023C2F34042C0F600039A5C48433E
:10079000B0FBF2F0D9F8001041F65022C1F303117A
:1007A000C0F60002515C40F2080220FA01F140F26A
:1007B0000400C2F200000068C2F200021160FFF7FC
:1007C000A5FE002001B0BDE8F083000040F2080063
:1007D000C2F2000000687047002804BF0120704783
:1007E0002DE9F04182B00446007841F20006C007CE
:1007F000C4F202060CD0706800F00C00042840F02F
:1008000081803068800303D56068002800F046814D
:10081000207880071BD5706810F00C0F09D0706825
:1008200000F00C00082840F087807068C00300F1D9
:1008300083803068800703D52069012840F02E812D
:100840003068616920F0F80040EAC100306020782B
:10085000000713D4207840072CD4E569002D00F060
:100860001881706800F00C00082840F0A780012D66
:1008700040F00481012002B0BDE8F081A0690028A9
:1008800000F084800020C4F242200121C0F88014CE
:10089000FFF714FE054600BF706A800700F1B280C2
:1008A000FFF70CFE401B0228F6D9032002B0BDE87A
:1008B000F08100BFF0695FEAC00808D4F06940F039
:1008C0008050F061F06900F080500090009847F28D
:1008D0000007C4F200073868C00549D4386840F4FE
:1008E00080703860FFF7EAFD054600BF3868C00534
:1008F0003ED4FFF7E3FD401B6428F7D9032002B084
:10090000BDE8F081706800F00C00082803D1706821
:10091000C0033FF576AF61683068002900F00C81B4
:10092000B1F5A02F00F00081B1F5803F40F01A81B1
:1009300040F480301CE100BF2069002840F2000034
:10094000C4F2422000F0888001210160FFF7B6FD6B
:10095000054600BF306880073FF572AFFFF7AEFD78
:10096000401B0228F6D9032002B0BDE8F08100BF89
:10097000E168306A002900F09D80052900F092802E
:10098000012940F0AF8040F00100B1E00020C4F246
:1009900042200021C0F88014FFF790FD054600BFFB
:1009A000706A80077FF556AFFFF788FD401B02286D
:1009B000F6D9032002B0BDE8F08100BF0027C4F2E1
:1009C000422700203866FFF779FD022D05460DD13C
:1009D0003068800140F1DE80FFF770FD401B022887
:1009E0004FF00300F4D902B0BDE8F0813068800117
:1009F0004FD5FFF763FD401B02284FF00300F5D9E8
:100A0000F1E700BF40F20800C2F20000006844F6BF
:100A1000D351C1F26201A0FB0101480A019000BF5D
:100A200000BF0198411E002801913FF413AF00BFA1
:100A30000198411E002801913FF40CAF00BF0198BE
:100A4000411E002801913FF405AF00BF0198411EEF
:100A500000280191E4D1FDE600210160FFF72EFDA1
:100A6000054600BF306880077FF5F1AEFFF726FD31
:100A7000401B02284FF00300F4D9B4E77068216AE4
:100A800000F480328A4209D1616A00F47010884211
:100A900004D1002002B0BDE8F08100BF012002B007
:100AA000BDE8F08140F004003062306A40F001009F
:100AB0001EE000BF20F001003062306A20F0040028
:100AC0003062FFF7FBFC054641F28837306A800749
:100AD00020D5FFF7F3FC401BB8424FF00300F5D9D7
:100AE00081E700BF20F001003062306A20F004008E
:100AF0003062FFF7E3FC054641F28837306A800731
:100B000008D4FFF7DBFC401BB842F7D9032002B042
:100B1000BDE8F081B8F1000F3FF59FAEF06920F01D
:100B20008050F06199E600BF40F48020306030686A
:100B300040F480301CE000BF20F48030306030682A
:100B400020F480203060FFF7B9FC05463068800350
:100B50007FF55EAEFFF7B2FC401B64284FF0030048
:100B6000F4D940E720F480303060306820F48020F1
:100B70003060FFF7A3FC0546306880033FF548AEC0
:100B8000FFF79CFC401B6428F6D9032002B0BDE8A7
:100B9000F08100BF206AB0F5803F05D17168A2687E
:100BA00021F40031114371607168626A21F474119B
:100BB00011430843706001203866FFF77FFC04464C
:100BC000306880013FF565AFFFF778FC001B022815
:100BD0004FF00300F4D906E7411E0020B0EB116F7F
:100BE0001CBF012070474EF21002CEF2000251608D
:100BF0004EF62351CEF20001F0230B7007219060D6
:100C00001160704790F83C20012A4FF0020236D064
:100C100010B580F83D200268D2F804E0D2F808C090
:100C20000C682EF07003234340F2FF74C4F20004FA
:100C3000A24253600ADCB2F1804F13D040F200436D
:100C4000C4F200039A420DD011E000BF42F6004307
:100C5000C4F201039A4205D040F60003C4F2000337
:100C60009A4204D149682CF0800319439160012114
:100C7000002280F83D1080F83C20BDE8104010466E
:100C800070470000002804BF0120704710B590F89D
:100C90003D1031B9002180F83C10044600F070F896
:100CA0002046022180F83D10016840F2FF740B6875
:100CB000C4F2000442F6004CA142C4F2010C15DC5F
:100CC000B1F1804F1AD040F20042C4F200029142CA
:100CD00014D0A14218DCB1F1804F1DD040F2004287
:100CE000C4F20002914217D01AE000BF614505D05E
:100CF00040F60002C4F200029142EAD1826823F079
:100D000070031343A142E6DD614505D040F60002C1
:100D1000C4F20002914203D1026923F440731343E9
:100D2000846923F08002D0F804E0C368224361455F
:100D30000A60CB62C1F828E002D14269CCF83020C9
:100D400001224A610B69DB0703D00B6923F0010321
:100D50000B6180F8462080F83E2080F83F2080F824
:100D6000402080F8412080F8422080F8432080F81D
:100D7000442080F8452080F83D20002010BD000070
:100D80000068B0F1804F18BF704781B041F21C007D
:100D9000C4F20200016841F001010160006800F046
:100DA00001000090009801B07047000090F83C20CE
:100DB000012A4FF002026CD080B580F83D20D0F8B7
:100DC00000C04FF67772DCF8083023EA0202CCF854
:100DD00008200B684F2B29DC1F2B45DD202B46D02C
:100DE000302B44D0402B40F0AF80D1F804E0C968EC
:100DF000DCF82030DCF8202022F00102CCF82020A2
:100E0000DCF8182022F0F00242EA011123F00A0275
:100E100042EA0E02CCF81810CCF82020DCF80810BA
:100E200041F0470121F0300128E000BF6F2B33DD96
:100E3000B3F5005F74D0B3F5805F21D0702B40F024
:100E40008380D1E901E3C968DCF8082043EA0E0396
:100E500022F47F4243EA01211143CCF80810DCF868
:100E6000081041F0770109E00BB1102B6CD1DCF8D0
:100E7000081021F07001194341F00701CCF8081067
:100E80000022012180F83D10002180F83C10BDE8CF
:100E900080401046704700BF502B21D0602B53D1AB
:100EA000D1F804E0C968DCF82030DCF8202022F01A
:100EB0001002CCF82020DCF8182022F4704242EA1C
:100EC000013123F0A00242EA0E12CCF81810CCF83F
:100ED0002020DCF8081041F0670121F01001CDE777
:100EE000D1F804E0C968DCF82030DCF8202022F0DA
:100EF0000102CCF82020DCF8182022F0F00242EAAF
:100F0000011123F00A0242EA0E02CCF81810CCF8C4
:100F10002020DCF8081041F0570121F02001ADE756
:100F2000D1E901E3C968DCF8082043EA0E0322F4A2
:100F30007F4243EA01211143CCF80810DCF8081085
:100F400041F480419AE700BF01229AE780B586B05C
:100F50000068B0F1804F4FF00000CDE90400CDE90A
:100F6000020001D006B080BD41F21800C4F20200B8
:100F7000016841F004010160006802A900F004006A
:100F8000019001980220CDE90200059040F6000092
:100F9000C4F20100FFF784F906B080BD90F83C3040
:100FA000012B04BF022070474FEAB202032A00F26D
:100FB000F1802DE9F043DFE802F003A53B7500BFA7
:100FC000036842F600461D6A1A6AC4F2010622F05E
:100FD00001021A621A465C6852F818CFB3428E6852
:100FE000D1F800E025F0020545EA06050CD1CE68EF
:100FF000D1E9057824F4407425F00C0526F00406A8
:101000003C43354344EA08042CF0730747EA0E07D3
:101010005C609F614F6809695F631D629F6947F06B
:1010200008079F619F6927F004079F61A6E000BF42
:10103000036842F600461D6A1A6AC4F2010622F4E9
:1010400080721A621A46D3F804C052F81CEFB342F9
:101050008E680C6825F4007545EA06250FD1CE6828
:10106000D1E90598360240F2FF4725F44065BE43BA
:1010700035432CF4405748EA090647EA061C2EF08F
:1010800073072743C3F804C0DF614F680969DF6352
:101090001D62DF6947F00807DF61DF6927F0040799
:1010A000DF616BE0036842F60047D3F820C01A6A9C
:1010B000C4F2010722F480521A621A465C6852F8A0
:1010C0001C5FD1F800E08E68BB4204D14F6924F464
:1010D000804444EA87142CF4005747EA063725F485
:1010E000E64646EA0E265C60DE614E6809691E64CB
:1010F0001F62DF6947F40067DF61DF6927F48067FB
:10110000DF613AE0036842F600461D6A1A6AC4F2DB
:10111000010622F010021A621A46D3F804C052F8EF
:10112000184FB3428E68D1F800E025F0200545EA5B
:1011300006150FD1CE68D1E905986FF0400725F06C
:10114000C00507EA061635432CF4406748EA09064D
:1011500047EA860C24F4E64444EA0E27C3F804C0A8
:101160009F614F6809699F631D629F6947F400672B
:101170009F619F6927F480679F6109021368194383
:1011800011600021BDE8F043002280F83C200846B1
:10119000704700BF0121002280F83C2008467047BC
:1011A000002804BF0120704710B590F83D1031B9F8
:1011B000002180F83C10044600F070F8204602211F
:1011C00080F83D10016840F2FF740B68C4F200041F
:1011D00042F6004CA142C4F2010C15DCB1F1804F83
:1011E0001AD040F20042C4F20002914214D0A1424F
:1011F00018DCB1F1804F1DD040F20042C4F2000271
:10120000914217D01AE000BF614505D040F60002B8
:10121000C4F200029142EAD1826823F070031343C2
:10122000A142E6DD614505D040F60002C4F20002AD
:10123000914203D1026923F440731343846923F07C
:101240008002D0F804E0C368224361450A60CB62A3
:10125000C1F828E002D14269CCF8302001224A616D
:101260000B69DB0703D00B6923F001030B6180F8E6
:10127000462080F83E2080F83F2080F8402080F80B
:10128000412080F8422080F8432080F8442080F8F4
:10129000452080F83D20002010BD00007047000070
:1012A000C1B1042908D0082914BF41224022825C20
:1012B000012A05D016E000BF3F22825C012A11D12D
:1012C0000222082910D0042914BF80F8412080F898
:1012D0003F200BE090F83E20012A03D1022280F843
:1012E0003E2003E00120704780F84020006801F0B4
:1012F0001F010122036A8A4023EA02010162036A94
:1013000042F64441C4F201011A43A1F14403984258
:1013100002620FD040F2FF71C4F20001884213DC78
:10132000B0F1804F1CD040F20041C4F2000188426D
:1013300016D01CE00A6842F400420A6040F2FF71D5
:10134000C4F200018842EBDD42F60041C4F2010123
:10135000884205D040F60001C4F20001884206D15F
:10136000816801F00701062904BF00207047016869
:1013700041F001010160002070470000FEE700001D
:10138000FEE70000FEE70000704700007047000025
:10139000FFF79AB870470000FEE7000070B50446FA
:1013A0000020012A88BF0120C00084F8370001F125
:1013B00040004FF48045012A84F83E2084F83D1017
:1013C000A4F8395084F83B1084F83C0004D1002B79
:1013D0001CBF042084F837003220FEF74DFF204662
:1013E0000021002200F03AF920460321002200F0FB
:1013F00035F90520FEF740FF20460021002200F0CD
:101400002DF920460321002200F028F9FFF7DEF92C
:101410004DF68361C4F21B31A0FB0101880C9621BB
:10142000484380B220B100210E31814200BFFBD37E
:1014300020460021002200F011F92046032100225D
:1014400000F00CF920460021002200F007F92046A8
:1014500002210022022500F001F90120FEF70CFF15
:1014600094F83760204645EA1611002200F0F6F89D
:1014700006F00F012046002200F0F0F8042084F866
:10148000360020460021002200F0E8F820460C211A
:10149000002200F0E3F820460021002200F0DEF8F0
:1014A00020460121002200F0D9F80220FEF7E4FED8
:1014B00020460021002284F8385000F0CFF8204662
:1014C00006210022BDE8704000F0C8B8B0B590F821
:1014D0003650044645F0010084F8360029092046BC
:1014E000002200F0BBF805F0060000F109012046DB
:1014F0000022BDE8B04000F0B1B8000010B50021F6
:101500000022044600F0AAF8204601210022BDE88E
:10151000104000F0A3B80000B0B590F83650044673
:1015200045F0020084F8360029092046002200F028
:1015300095F805F0050000F10A0120460022BDE8FB
:10154000B04000F08BB80000B0B590F836500446BB
:1015500045F0040084F8360029092046002200F0F6
:101560007DF8032060F39F05204629460022BDE850
:10157000B04000F073B8000010B50021002204460E
:1015800000F06CF820460221002200F067F80220EB
:10159000BDE81040FEF770BEB0B590F83650044676
:1015A00005F0FE0084F8360029092046002200F0EC
:1015B00055F805F0060000F1080120460022BDE8BC
:1015C000B04000F04BB80000B0B590F8365004467B
:1015D00005F0FD0084F8360029092046002200F0BD
:1015E0003DF805F0050000F1080120460022BDE8A5
:1015F000B04000F033B80000B0B590F83650044663
:1016000005F0FB0084F8360029092046002200F08E
:1016100025F8022060F39F05204629460022BDE8F8
:10162000B04000F01BB8000070B50D78002D08BF69
:1016300070BD04464E1E00BFE8B2010920460122DB
:1016400000F00CF805F00F012046012200F006F82A
:10165000B5780136002DEFD170BD0000B0B504465D
:10166000A38800680D461946FEF722FF206BA18E65
:10167000C5F3C002FEF71CFFA06AA18DC5F380026E
:10168000FEF716FF206AA18CC5F34002FEF710FF9B
:10169000A069A18B05F00102FEF70AFF2069A18A6B
:1016A0000122FEF705FFFFF791F844F24021C0F256
:1016B0000F014DF683658842C4F21B3508D3A0FBA9
:1016C0000501880C002100BF0E31814200BFFBD311
:1016D0002069A18A0022FEF7EBFEFFF777F8A0FB56
:1016E0000501880C3221484380B2002808BFB0BDF4
:1016F000002100BF0E31814200BFFBD3B0BD00000E
:10170000B0B5044690F83E00032A28BF0322824267
:1017100028BF421ED0B2204490F83900002245185C
:10172000E8B2082141EA10112046FFF797FF05F0C3
:101730000F0120460022BDE8B040FFF78FBF000038
:1017400092B0FEF7CFFE00240120CDE90B44CDE995
:1017500009440A9010200B904FF4601002250F905E
:1017600006A8CDE907440695CDE90D54FFF734F8F6
:1017700020B1EFF3108072B6FEE700BF0F20CDE975
:1017800001054FF48060CDE9040401A8022103940F
:10179000FEF73EFF20B1EFF3108072B6FEE700BF08
:1017A000002441F21800CDE90844CDE90644C4F212
:1017B0000200016840F6004A41F010010160016832
:1017C000C4F2010A01F010010191019901680AF5C2
:1017D000806541F0040101600168002201F004010C
:1017E0000191019901684FF4005741F0080101602F
:1017F00000684FF4005100F008000190019828465D
:10180000FEF756FEAAF580663046102100224FF002
:101810001009FEF74DFE50464FF202410022FEF73E
:1018200047FE069706AF4FF0010B4FF0020828461F
:101830003946CDE907B4CDF82480FEF731FD3046B6
:101840003946CDE9069BCDE90888FEF729FD4FF220
:101850000240CDE9060B50463946CDE90848FEF76F
:101860001FFD40F27000C2F200004FF0804144F6CC
:101870001F630494CDE90244CDE91044CDE90B4443
:10188000CDE909443F2280E81600C0E903348461B1
:10189000FFF7F8F920B1EFF3108072B6FEE700BF52
:1018A0004FF48050019040F27000C2F2000001A994
:1018B000FFF77CFA20B1EFF3108072B6FEE700BFAD
:1018C00040F27000C2F20000FFF76AFC20B1EFF3B3
:1018D000108072B6FEE700BF40F27000C2F2000056
:1018E00010A9FFF78FF928B1EFF3108072B600BF8F
:1018F000FEE700BF602040F2700506900020C2F2B3
:101900000005CDE907000A9006A928460422FFF742
:1019100045FB28B1EFF3108072B600BFFEE700BFB1
:101920002846FFF713FB28460421FFF7B9FC40F2D5
:10193000B806C2F200064FF48060B0800220B08288
:101940004FF40040B0834FF48040B0844FF4005017
:10195000B0854FF48050B08630461021022200231B
:10196000C6F800A0C6F810A0C6F818A0C6F820A0B7
:10197000C6F828A0C6F830A0FFF710FD30460021B9
:101980000022FFF7BDFE26A13046FFF74DFE304690
:1019900000210122FFF7B4FE25A13046FFF744FEE7
:1019A00040F2DC5040F2DC54FEF766FC3046FFF7B4
:1019B00023FE3046FFF7C8FD3046FFF79FFD304657
:1019C000FFF7DAFD1FA13046FFF72EFE40F6C417E1
:1019D000286884634FF47A70FEF74EFC28688763AA
:1019E0004FF47A70FEF748FC4FF47A70FEF744FC2F
:1019F0003046FFF791FD4FF47A70FEF73DFC30461C
:101A0000FFF764FD40F6B830FEF736FC3046FFF7CE
:101A1000C3FD3046FFF7D8FD6420FEF72DFCD7E765
:101A2000486F6C61204D756E646F2120636F6E008E
:101A300043616C6942657461205072726F6F21213D
:101A400000000000457361206E6F746100000000AB
:101A5000000000000000000001020304060708095E
:101A6000010202030405060708090A0B0C0D0E0FFC
:101A700010100000981A000800000020100000005C
:101A800050010008A81A000810000020F00600000D
:101A900070010008000000000100000010000000BC
:081AA00000127A0000000000B2
:04000005080000ED02
:00000001FF
